:100000000C945D000C946E020C9447020C948500D5
:100010000C9485000C9485000C9485000C9485004C
:100020000C9485000C9485000C9485000C9485003C
:100030000C9485000C9485000C9485000C9485002C
:100040000C94FD010C9485000C94BB020C94950259
:100050000C9485000C9485000C9485000C9485000C
:100060000C9485000C9485000000000024002700FB
:100070002A0000000000250028002B0004040404CE
:100080000404040402020202020203030303030342
:10009000010204081020408001020408102001021F
:1000A00004081020000000080002010000030407FB
:1000B00000000000000000002D0411241FBECFEF3F
:1000C000D8E0DEBFCDBF11E0A0E0B1E0ECE8F9E0A0
:1000D00002C005900D92AA31B107D9F721E0AAE13B
:1000E000B1E001C01D92A33CB207E1F710E0CDE5FD
:1000F000D0E004C02197FE010E94B904CC35D1079D
:10010000C9F70E94ED020C94C4040C94000090E026
:10011000FC01EC55FF4F2491FC01E057FF4F349157
:10012000FC01E458FF4FE491EE2309F43CC0222384
:1001300039F1233091F038F42130A9F0223001F563
:1001400084B58F7D12C0273091F02830A1F0243083
:10015000B9F4809180008F7D03C0809180008F77FB
:10016000809380000DC084B58F7784BD09C08091D5
:10017000B0008F7703C08091B0008F7D8093B00076
:10018000F0E0EE0FFF1FEE58FF4FA591B4919FB71F
:10019000F894611104C08C913095382302C0EC9121
:1001A0003E2B3C939FBF089581E080931A010895F0
:1001B0000895CF92DF92EF92FF920F931F93CF9308
:1001C000DF936C017A018B01C0E0D0E0CE15DF0532
:1001D00081F0D8016D918D01D601ED91FC910190D6
:1001E000F081E02DC6010995892B11F02196EECF03
:1001F0007E01C701DF91CF911F910F91FF90EF908A
:10020000DF90CF900895089580E090E00895FC017C
:10021000538D448D252F30E0842F90E0821B930B6B
:10022000541710F0CF96089501970895FC01918D11
:10023000828D981761F0828DDF01A80FB11D5D9648
:100240008C91928D9F5F9F73928F90E008958FEFB6
:100250009FEF0895FC01918D828D981731F0828D6A
:10026000E80FF11D858D90E008958FEF9FEF0895C1
:10027000FC01918D228D892F90E0805C9F4F821B25
:1002800091098F739927089586E291E00E943801C1
:1002900021E0892B09F420E0822F0895FC01848D50
:1002A000DF01A80FB11DA35ABF4F2C91848D90E0A0
:1002B00001968F739927848FA689B7892C93A0897B
:1002C000B1898C91837080648C93938D848D981305
:1002D00006C00288F389E02D80818F7D8083089598
:1002E000EF92FF920F931F93CF93DF93EC0181E086
:1002F000888F9B8D8C8D981305C0E889F989808142
:1003000085FD26C0F62E0B8D10E00F5F1F4F0F737B
:100310001127E02E8C8DE8120CC00FB607FCFACF27
:10032000E889F989808185FFF5CFCE010E944E01D1
:10033000F1CF8B8DFE01E80FF11DE35AFF4FF082E4
:100340009FB7F8940B8FEA89FB89808180620AC08D
:100350009FB7F894EE89FF896083E889F9898081E5
:100360008370806480839FBF81E090E0DF91CF91B4
:100370001F910F91FF90EF900895CF93DF93EC01C1
:10038000888D8823C9F0EA89FB89808185FD05C0B5
:10039000A889B9898C9186FD0FC00FB607FCF5CFEF
:1003A000808185FFF2CFA889B9898C9185FFEDCF37
:1003B000CE010E944E01E7CFDF91CF91089580E0FA
:1003C00090E0892B29F00E94440181110C940000D7
:1003D0000895009769F0FC0101900020E9F731973A
:1003E000AF01481B590BBC0186E291E00C94D90087
:1003F00080E090E008950E94BF041F920F920FB614
:100400000F9211242F933F938F939F93AF93BF939A
:100410008091220190912301A0912401B0912501A6
:100420003091210123E0230F2D3720F40196A11DE7
:10043000B11D05C026E8230F0296A11DB11D209312
:1004400021018093220190932301A0932401B09372
:10045000250180911D0190911E01A0911F01B09175
:1004600020010196A11DB11D80931D0190931E01D5
:10047000A0931F01B0932001BF91AF919F918F91E5
:100480003F912F910F900FBE0F901F9018951F92C4
:100490000F920FB60F9211242F933F934F935F93B8
:1004A0006F937F938F939F93AF93BF93EF93FF933C
:1004B000E0910201F09103010995FF91EF91BF9145
:1004C000AF919F918F917F916F915F914F913F91EC
:1004D0002F910F900FBE0F901F9018951F920F92A3
:1004E0000FB60F9211242F933F934F935F936F9307
:1004F0007F938F939F93AF93BF93EF93FF93E0917D
:100500000001F09101010995FF91EF91BF91AF9129
:100510009F918F917F916F915F914F913F912F911B
:100520000F900FBE0F901F9018951F920F920FB64D
:100530000F9211242F933F934F935F936F937F9369
:100540008F939F93AF93BF93EF93FF9386E291E0D6
:100550000E944E01FF91EF91BF91AF919F918F91BA
:100560007F916F915F914F913F912F910F900FBEAF
:100570000F901F9018951F920F920FB60F92112493
:100580002F938F939F93EF93FF93E0913601F09118
:1005900037018081E0913C01F0913D0182FD12C064
:1005A000908180913F018F5F8F732091400182176E
:1005B00051F0E0913F01F0E0EA5DFE4F958F8093AE
:1005C0003F0101C08081FF91EF919F918F912F9109
:1005D0000F900FBE0F901F901895CF93DF93CDB75C
:1005E000DEB7A1970FB6F894DEBF0FBECDBF7894EB
:1005F00084B5826084BD84B5816084BD85B5826028
:1006000085BD85B5816085BD80916E0081608093D8
:100610006E00109281008091810082608093810041
:100620008091810081608093810080918000816051
:10063000809380008091B10084608093B1008091AC
:10064000B00081608093B00080917A0084608093D4
:100650007A0080917A00826080937A0080917A009B
:10066000816080937A0080917A00806880937A001C
:100670001092C10084ED90E09093010180930001FD
:10068000809169008C7F826080936900E89AE3E939
:10069000F0E02491EFE7F0E08491882399F090E076
:1006A000880F991FFC01E859FF4FA591B491FC01F7
:1006B000EE58FF4F859194918FB7F894EC91E22B0F
:1006C000EC938FBFE0913601F091370182E0808397
:1006D000E0913201F09133011082E0913401F09108
:1006E00035018FEC808310923E01E0913A01F09148
:1006F0003B0186E08083E0913801F09139018081EF
:1007000080618083E0913801F091390180818860B7
:100710008083E0913801F091390180818068808385
:10072000E0913801F091390180818F7D808330E440
:10073000332E412C44E0542E612C712C5AE0C52EEE
:10074000D12CE12CF12C30927C0080917A008064D5
:1007500080937A0080917A0086FDFCCF209178000A
:100760008091790030E0382BA8EFBFED0E94AA04F9
:10077000A30192010E945A0489019A01085F1F4D4A
:100780002F4F3F4FC80110931C0100931B01609134
:100790001A01662309F45EC00230110538F0880F93
:1007A000991F880F991F05970197F1F74801110FBD
:1007B000AA08BB08B7FE20C06DE286E291E00E9465
:1007C000700122273327A901281939094A095B0931
:1007D00019A28E010F5D1F4FCA01B901A701960131
:1007E0000E947904605DF80162938F012115310543
:1007F0004105510589F715C0A501940119A28E0183
:100800000F5D1F4FCA01B901A70196010E9479042B
:10081000605DF80162938F01211531054105510595
:1008200089F7C8010E94E90142E050E066E171E009
:1008300086E291E00E94D90061E083E00E94870097
:100840008BE891E00197F1F760E083E00E94870078
:1008500010921A010E94DF0176CFE6E2F1E01382E6
:10086000128288EE93E0A0E0B0E084839583A683B3
:10087000B78388E091E09183808385EC90E0958751
:10088000848784EC90E09787868780EC90E0918B5A
:10089000808B81EC90E0938B828B82EC90E0958B47
:1008A000848B86EC90E0978B868B118E128E138E44
:1008B000148E0895052E97FB1EF400940E94710477
:1008C00057FD07D00E94790407FC03D04EF40C9426
:1008D000710450954095309521953F4F4F4F5F4F94
:1008E000089590958095709561957F4F8F4F9F4F9C
:1008F0000895A1E21A2EAA1BBB1BFD010DC0AA1F61
:10090000BB1FEE1FFF1FA217B307E407F50720F078
:10091000A21BB30BE40BF50B661F771F881F991FF3
:100920001A9469F760957095809590959B01AC013C
:10093000BD01CF010895A29FB001B39FC001A39F45
:10094000700D811D1124911DB29F700D811D112408
:10095000911D08950E949B04332312F48A1B9B0B64
:100960000C94B4040E949B04B7FF0895821B930B60
:100970000895EE0FFF1F0590F491E02D099481E09A
:0C09800090E0F8940C94C404F894FFCFAD
:10098C00D800D800000000007001D9000701BD019B
:0A099C00380116012A010D0A0000BF
:00000001FF
